:020000040000FA
:1000000000000220630F0000010500002D0D00001C
:1000100001050000010500000105000000000000CE
:10002000000000000000000000000000D5030000F8
:100030000105000000000000410400005104000020
:100040000105000001050000010500000105000098
:100050000105000001050000010500000105000088
:100060000105000001050000000000000000000084
:100070000000000000000000000000000000000080
:100080000000000000000000000000000000000070
:100090000000000000000000000000000000000060
:1000A0000000000000000000000000000000000050
:1003C000DFF80CD000F08AF8004800474511000023
:1003D000000002201EF0040F0CBFEFF30880EFF3C3
:1003E0000980816911F8021CD9B901B590E80F1094
:1003F000E047BDE800508CE80300194B93E8060085
:10040000914208BF704719B12CE9F00FC1F838C00C
:100410001A60906BB0E8F00F80F309886FF0020E5D
:100420007047104A13689942FAD801B552F821C0B2
:100430000FC8E047BDE80050CCF80000704700004E
:1004400001B501F0A3F9BDE80140EFF3098CD4E751
:1004500001B501F015FCBDE80140EFF3098CCCE7D4
:100460001C000020682A000040EA01039B0703D01B
:1004700009E008C9121F08C0042AFAD203E011F8E3
:10048000013B00F8013B521EF9D27047D2B201E0A5
:1004900000F8012B491EFBD270470022F6E710B589
:1004A00013460A4604461946FFF7F0FF204610BDE2
:1004B00030B50B46014600202022012409E021FA34
:1004C00002F59D4205D303FA02F5491B04FA02F531
:1004D0002844151EA2F10102F1DC30BD064C074D87
:1004E00006E0E06840F0010394E807009847103404
:1004F000AC42F6D3FFF768FFD82A0000F82A0000C4
:10050000FEE70000C349097851B1C0F3C621D94ABA
:10051000C0F30220515C21FA00F000F001007047A6
:100520000020704770B5BB4C264656F8185F00F0A7
:100530004BFA56E8001F46E8000202B1F9E7A9426B
:10054000F2D1A84208D204F1100151E8002F531C47
:1005500041E8003404B1F8E770BD00BFF8B51446B7
:100560000D460646FFF7CEFF98B13746C0F20807A2
:10057000FFF7D8FF0146EFF30580002808BFB7B2A8
:100580002A46234607F1407001B0BDE8F04000F074
:10059000C5B80120F8BD00002DE9F0479946924604
:1005A0000F460646FFF7AEFF58B33446DDF820800D
:1005B000C0F20804FFF7B6FF0546EFF305800028F8
:1005C00008BFB4B2EF480130D0E84F1F4A1CC0E862
:1005D000432F03B1F8E74FF4E0203A46534600EAD0
:1005E00001462946A01900F1807000F097F858B133
:1005F000074829464A4643463043BDE8F04700F0E5
:100600008DB80120BDE8F0870020BDE8F08700BF6D
:10061000010000022DE9FC4711B11546802A02D9DC
:100620000020BDE8FC870E460446FFF76BFFE0B1F3
:100630002746C0F20807FFF775FF8046EFF30580F5
:10064000002808BFA7B29DB1082D16D80020CDE91B
:10065000000031462A466846FFF706FF05F007000E
:1006600047EA004000F140704DE00120BDE8FC8702
:10067000384641460022002348E0D1480130D0E806
:100680004F1F4A1CC0E8432F03B1F8E74FF4E020A6
:1006900032687368CDE9002300EA0144414647EA25
:1006A000040000F1807000F039F80028B8D0194833
:1006B000083600EB052A4FF60170083D44EA0007B2
:1006C000092D12D33468D6F80490384641462246A4
:1006D0004B4600F023F80836083D0137AAF5006ABA
:1006E0000028EDD1CDE900499AE70020CDE90000CE
:1006F00031462A466846FFF7B7FE0748384040EAC9
:100700000A0040F00070009A019B414600F006F894
:10071000BDE8FC8700F8FFFFFF00FF7D2DE9F04FEB
:100720004FF0805491464FF000529A468B466FF03E
:100730000706DFF860E204EAD10402EA99022043E6
:1007400010434FF0804202EA530240EA02089C48FC
:1007500000F1040C013680F05180614651E8004FF1
:10076000601C41E8000505B1F8E704F03F0504F41A
:1007700070740EEB051048EA843400F10C0744F065
:10078000406257E8004FA10103D3BFF32F8F00242D
:1007900006E004F00044144347E8004303B1F0E7E7
:1007A0006101D7D584F004422BF000412C0102F006
:1007B000004319444EF8041029F000442AF0004187
:1007C00019442344C0E9013157E8001F890103D2CD
:1007D000BFF32F8F002004E047E8002303B1F3E7C5
:1007E000012058B17648083050E8001F4A1C40E804
:1007F000002303B1F8E70120BDE8F08F70480C300A
:1008000050E8001F4A1C40E8002303B1F8E700202D
:10081000BDE8F08F00190020FE2901D8FE2A01D979
:10082000002070472DE9F04100234FF0010EDFF862
:1008300058814FF0000CBCF1040F17D020FA0CF7D0
:10084000FF070FD00F4697420CD803EBD70407F0F1
:10085000070601370EFA06F618F80450354308F873
:100860000450F0E70CF1010C2033E4E70120BDE86F
:10087000F08100BF801800202DE9F047DFF840A18B
:1008800081460020884680218AF800003E48FFF714
:1008900004FE18213D4A4FF0FF3341F221064FF08C
:1008A000FF3589B1147885EA04256FF0070444B157
:1008B0002FB286EA45009F42C8BF68000546013452
:1008C000F5E701390132ECE7DAF8200030498842D7
:1008D00018D1BAF80210A8B2814215D1DAF81C007A
:1008E000411CCAF81C10A0B100202A49B0F5806F45
:1008F0001BD00A18D3685C0102D523F04063D36093
:100900001030F3E7CAF820100120CAF81C00AAF83A
:1009100002500020CAE90100CAF80C008AF8010060
:100920004FF480611B48FFF7B8FD00F057F806460A
:100930000020002E31461CBF47F64001C0F27D1159
:10094000CAE90401CAF8180019D0134C484600211E
:10095000FE22A0470F20EF21EF22A0470420FE2116
:10096000FE22A047FFF7DEFD0146DAF81C200B4807
:1009700000F097FAB8F1000F01D000F011F83046FE
:10098000BDE8F0870019002080180020502A0000E0
:100990006B27A5E1801400201908000000FF000368
:1009A00080B50748017841B901210170FFF7BAFD10
:1009B00001460448002200F074FA012080BD00BF07
:1009C0000019002001FF000380B500F0E7FA18B11C
:1009D000BDE8804000F0FCBB002080BD0248002143
:1009E00001700120704700BF4014002001460148FB
:1009F00000F047BA01F301000146014800F041BA96
:100A000005F3020001464FF4734000F03ABA0000CB
:100A10000146014800F035BA03F3020001460148DF
:100A200000F02FBA0DF5020001464FF4714000F0BE
:100A300028BA00000148002100F023BA01F10100AA
:100A40000148002100F01DBA02F102000148002116
:100A500000F017BA07F101000148002100F011BAB7
:100A600008F102001CB500F057FA0093014800F0AD
:100A700040FA1CBD01F002000A4601460148FFF79A
:100A80006DBD00BF04F00200E0B500F010FA009068
:100A90000148FFF781FD8CBD05F002001CB500F098
:100AA0003BFA0093014800F024FA1CBD03F0020059
:100AB000E0B500F0FCF900900148FFF76DFD8CBD3A
:100AC00002F00200E0B500F0F2F900904FF43C3083
:100AD000FFF762FD8CBD00000146014800F0D1B96E
:100AE00008F902000A4601460148FFF737BD00BF7A
:100AF00003FA02000A4601464FF47A40FFF72EBD82
:100B00001CB500F009FA0093014800F0F2F91CBD91
:100B10000CFA0100E0B500F0CAF900900148FFF7B7
:100B20003BFD8CBD0DFA02000146014800F0A9B959
:100B30000EFA02000A4601460148FFF70FBD00BF4A
:100B400009FA02000A4601460148FFF707BD00BF47
:100B50000AFA0200E0B500F0AAF900900148FFF798
:100B60001BFD8CBD01FA01000A4601460148FFF752
:100B7000F5BC00BF0BFA02000A4601460148FFF728
:100B8000EDBC00BF10FA02001CB500F0C5F90093DF
:100B9000014800F0AEF91CBD06FA0100E0B500F016
:100BA00086F900900148FFF7F7FC8CBD07FA0200B8
:100BB0000146014800F065B908FA02000A460146FC
:100BC0000148FFF7CBBC00BF0FFA02000146014805
:100BD00000F057B908F702000A4601460148FFF73E
:100BE000BDBC00BF09F702000A4601460148FFF7F5
:100BF000B5BC00BF0CF702000146014800F041B946
:100C000008F802000A4601460148FFF7A7BC00BFEA
:100C100016F203000B4601460348002A0CBF1A4691
:100C20002930FFF79BBC00BF03F2020001460148D8
:100C300000F027B91CF202000A4601464FF4724048
:100C4000FFF78CBC0148002100F01BB91AF201002B
:100C50000A4601464FF47440FFF780BC0A4601463D
:100C60000148FFF77BBC00BF01F401000A460146C2
:100C70000148FFF773BC00BF02F40200E0B500F0CA
:100C800016F900900148FFF787FC8CBD06F40100BF
:100C90001CB500F041F90093014800F02AF91CBD91
:100CA00009F402000A4601460148FFF757BC00BF9D
:100CB0000AF40200E0B500F0FAF800900148FFF7EE
:100CC0006BFC8CBD07F402000146014800F0D9B866
:100CD00008F402000146014800F0D3B815F2020002
:100CE000E0B500F0E4F800900148FFF755FC8CBD3A
:100CF00001F201000146014800F0C3B818F20300F8
:100D00000146014800F0BDB819F202000A4601464A
:100D10000148FFF723BC00BF17F203000A46014653
:100D20000148FFF71BBC00BF01F60200FEE710B54B
:100D300000F1280151E8002F12B9BFF32F8F04E012
:100D4000531E41E8003404B1F4E772B12C300121A4
:100D5000006850B1821CD2E84F3FC2E8441F04B182
:100D6000F9E71A0602D00830F2E7002010BD70B58E
:100D7000024652F8305F4DB1CC7800235DB12E466B
:100D8000ED78A5420DD275683346F7E70023C1E937
:100D90000133C1620DE00024C1E9014300F12C04DC
:100DA00003E0C1E9016306F108042160002B18BFCC
:100DB0001A1D1160283050E8001F4A1C40E800232B
:100DC00003B1F8E770BDD1E9012312B193608B68DC
:100DD00000E0C362191D002B08BF00F130010A605A
:100DE0007047000022480068704700BF2148017822
:100DF000012905D105494FF080620A600021017088
:100E00001B48016841F001010160704704ED00E0FA
:100E1000064801684068081A704700BF4FF0FF306D
:100E200070470000014800680130704714E000E09E
:100E30000F480068C0F30040704700BF40B16849E8
:100E40000968B1FBF0F0411E0020B0EB116F02D039
:100E50004FF0FF307047054AFF231370044A062302
:100E600013605160034908709060704723ED00E003
:100E700010E000E0E000002000214FF0FF3200F021
:100E8000D3BF0022FFF76ABB2168D4E902232046C2
:100E900000F09BBB20466FF003016FF00305FFF7E6
:100EA00029BE0023FFF73ABC002100222047134649
:100EB0000A460146002070474FF0FF304FF0FF34E4
:100EC000FFF7B2BD0021002206464FF0000800F0F7
:100ED000C3BE20466FF003016FF00305704700208A
:100EE0006FF00501FFF7B4BE00206FF00701FFF7B8
:100EF000AFBE2346FFF750BB6FF00500FFF794BD70
:100F00006FF003016FF00306FFF7F4BD20466FF0AA
:100F100002016FF00205704714460A460146704709
:100F20006FF0050080BD20464146FFF70BBE20460E
:100F300000F0EBBD204600F0C9BD204600F0EFBD3B
:100F400094F82320616A204600F04EB806462046F9
:100F50003146FFF738BF204600F0F0BC204600F0D5
:100F600089BD00F031F8FFF72BFA0000014601A01F
:100F700001F054BC4C4544204F66663A202325645A
:100F80000A0D0000014601A001F048BC4C45442078
:100F90004F6E3A20202325640A0D000010B5074C3F
:100FA000207808B1012010BD00F0FAF8012802DD18
:100FB0000120207010BD207810BD00BF401400201B
:100FC0000748084901607047034804490160044824
:100FD00004490160704700BF08ED00E00000000018
:100FE0000400002040787D0110B5930712D400F171
:100FF0002803D00715D153E8000F084203D1BFF3EF
:101000002F8F002005E020EA010243E8002404B10C
:10101000F1E710BD806AD20700EA010312D1A3B93B
:1010200012E053E8000F00EA01028A4203D0BFF346
:101030002F8F002005E020EA010243E8002404B1DC
:10104000EFE710BD8B4200D0002010BDB0B55F4A65
:101050000023443215462C683CB12569A94209D3C6
:10106000491B04F10C052346F5E70024C0E90234CE
:10107000016106E0C0E902340161A0602569691AD6
:101080002161002B18BF03F10C021060B0BD00BF3E
:10109000B0B51048104CFFF707FF104D002100229B
:1010A00028610F48A04768600E48FFF7FDFEA86062
:1010B0000D48FFF7F9FEE8600C48FFF7F5FE2860E1
:1010C0002869012100F070FE4FF0FF30BDE8B0400C
:1010D00000F04AB8A91E0000651E0000B000002004
:1010E000CD1E0000F11E0000151F0000F1100000D1
:1010F0004FF48070FFF7C0FE502000F035F8F7E79E
:10110000B0B504460C48814203D10C4D286807282D
:1011100003D94FF0FF342046B0BD421C28442A605A
:10112000082A047101D00A2CF5D1291D0448FFF7C3
:1011300071FA00202860EEE700000020D4000020B3
:1011400000FE0200FFF73CFF00F054F805480021C4
:10115000002200F087FE00F023F8012801D100F002
:1011600061F8FEE79110000010B50446FFF73EFC61
:10117000EFF3058028B9EFF3108010B9EFF3118079
:1011800030B16FF00500FFF73DFC6FF0050010BDBA
:101190002046DFF808C000DF10BD00BF7D1F000043
:1011A000EFF3058048B9EFF3108030B9EFF3118009
:1011B00018B9EFF31480C00702D10448007A7047D1
:1011C000DFF804C000DF7047A11F00000800002006
:1011D000EFF3058028B9EFF3108010B9EFF3118019
:1011E00008B100F0E3BEDFF808C000DF704700BFC1
:1011F000AD1F000080B500F0DDF8FFF71BFCEFF33A
:10120000058028B9EFF3108010B9EFF3118018B101
:10121000FFF772FEFFF784BEDFF804C000DF80BD79
:10122000D51F000080B5FFF711FCEFF3058028B94A
:10123000EFF3108010B9EFF3118018B1FFF75CFEE7
:10124000FFF76EBEDFF804C000DF80BDE5200000C0
:10125000F8B51F4616460C460546FFF751FCEFF35E
:10126000058028B9EFF3108010B9EFF3118030B387
:10127000E5B12878FA2819D1C4B1BFB92846FFF7DB
:1012800056FD20B3074600F10C016A6A2046FFF7BD
:10129000EBF80EB1F87830703846FD6000F0BAFA1D
:1012A00028462146FFF78AFC002406E028466FF016
:1012B00003016FF00304FFF71DFC2046F8BD28462C
:1012C000DFF818C0214632463B4600DFF8BD28460D
:1012D0002146FFF751FC6FF00204EEE78121000088
:1012E00070B514460D460646FFF734FCEFF3058053
:1012F00028B9EFF3108010B9EFF3118038B1002056
:101300006FF005010024FFF7F5FB204670BD304665
:10131000DFF80CC02946224600DF0446F5E700BF8F
:1013200079220000F8B51F4616460C460546FFF721
:101330002BFCEFF3058028B9EFF3108010B9EFF321
:10134000118020B3F5B12878FA281BD1D4B1CFB9D8
:1013500005F10C0000F0ECF808B307466A6A0C309F
:101360002146FFF781F8F920C7E901453870FE7082
:101370000026BE70384600F04DFA28462146FFF799
:10138000D9FB02E02846FFF7BBFD3046F8BD2846F2
:10139000DFF818C0214632463B4600DFF8BD28463C
:1013A0002146FFF7E1FB6FF00206EEE7BD230000E8
:1013B000FEE7FEE710B5FFF7F3FE00B110BD002019
:1013C0000121FFF759FA184C0120F021F022A04723
:1013D0000120F121F122A0470520F221F222A047AD
:1013E0000120F321F322A0470120F421F422A04799
:1013F0000120F521F522A0470120F621F622A04781
:101400000120F721F722A0470120F821F822A04768
:101410000120F921F922A0470120FA21FA222346CE
:10142000BDE81040184700BF19080000F8B5A8B182
:10143000A1B1042A12D2034601F10F0424F0070CD3
:1014400053F8085F2E46EF1A5D6825F003043C1B35
:10145000644509D235683346002DF3D100240023BA
:10146000FFF700FB2046F8BDD0E9004607196644A7
:10147000466057F8044CB44203D2A7F108046660F2
:101480005D6855B125F003051C68EC501D441D60D6
:101490004CEA02042B466C6002E04CEA02045C60F9
:1014A00003F108042346DBE7B0B560B159B100F1A0
:1014B0000804A1F10802002394420AD025462468BA
:1014C000002C2B46F8D100240022FFF7F1FA204629
:1014D000B0BD51F8045C446825F00305641B44600A
:1014E00013B112681A6002E0002241F8042C0124B2
:1014F0000122EAE710B528B140EA0102520701D102
:10150000172905D800240022FFF7DCFA204610BD79
:101510000A181024A2F108038360002342F8083C53
:1015200082685460C0E9001401240122C360EBE723
:10153000B0B5002817D000F1140151E8004F14B9DC
:10154000BFF32F8F04E0226841E8002303B1F4E7E2
:101550003CB1011D51E8002F531C41E8003505B195
:10156000F8E7214602E0002400200021FFF784FA7A
:101570002046B0BDB0B500281FD0C2688A421CD832
:1015800002698A4219D900F1140213680B60BFF393
:101590005F8F52E8003F0C689C42F6D142E800158C
:1015A00005B1F2E7021D52E8003F5C1E42E800452B
:1015B00005B1F8E70024002203E06FF003046FF0A8
:1015C0000302FFF761FA2046B0BD70B5E0B10E46E8
:1015D000D1B11446C2B1014600201D46CBB104FB77
:1015E0000652C1E90060C1E9024508462B46C1E93F
:1015F000042531462246FFF751FA701E30B12919F1
:10160000296001380D46F9E7002070BD00202860F0
:10161000012070BD2DE9F04104468078A8B3E5684B
:1016200021462846FFF7CFFB002005F10C0620706D
:1016300021463046FFF79EFFA86820B33046FFF7EB
:1016400077FF00B30446284600F040FAFFF73AFC63
:10165000304600F09DFA876806466A6A04F10C007D
:101660003946FEF701FFF9202070214684F80280F8
:10167000F068E0702846FFF77AFB28463946BDE857
:10168000F041FFF75FBABDE8F081D4E90115A86821
:1016900030B34078832823D12846FFF753FA2846F1
:1016A00000F014FAFFF70EFC304600F071FA86687D
:1016B00007466A6A04F10C013046FEF7D5FEF86869
:1016C00008B1E178017028463146FFF777FA84F8CF
:1016D000008005F10C002146BDE8F041FFF74ABF4C
:1016E0002846FFF72FFA28462146BDE8F041FFF7CC
:1016F0003EBB2DE9F041044600274FF0010814B32A
:1017000025466469E8780007F9D5284600212F7638
:10171000FFF76AFAA8680028F1D0284600F0D6F949
:1017200000210022064600F097FAC5E90367F06A37
:10173000686100B105612846012185F81880F562CD
:10174000FFF74AFADBE7BDE8F081B0B5C27892074F
:1017500015D5C06890F82120C36A9C688C4208BFE8
:101760008C682CB194F9204055B2AC42C8BFE2B2AB
:101770005B69002BF1D190F82010914200D1B0BDEF
:1017800080F82020BDE8B04000F0CFB970B5CE4C55
:1017900004F1560504F15A06B4F85400D5E85F1F69
:1017A00011B9BFF32F8F04E04A1EC5E8532F03B1D0
:1017B000F4E7090429D0D6E85F1F4A1C904200D8FC
:1017C0000022C6E8532F03B1F5E788B2E16D51F866
:1017D0002000D0B10178F1390829DDD8DFE801F027
:1017E00006050905050C0F051200D5E7216E88478F
:1017F000D2E7616E8847CFE7A16E8847CCE7E16EFC
:101800008847C9E7216F8847C6E70020BDE87040D8
:1018100000F006B970B50146F44800F15603B0F87F
:101820005420D3E85F4FA24202D8BFF32F8F04E0C9
:10183000651CC3E8565F06B1F3E7A3B2934214D226
:1018400000F15803D3E85F4F651CAA4200D8002579
:10185000C3E8565F06B1F5E7A2B2C36D43F82210A4
:10186000417A39B10121817270BD0220BDE870401A
:10187000FFF79EBD02484FF08051016070BD00BF70
:1018800004ED00E010B50121417090F92030F149DC
:101890001C310A46896841B191F920409C42F8DC2C
:1018A000C0E9021290600C3104E00021C0E902128C
:1018B00002F108010860BDE81040FFF71BBA00BF45
:1018C000B0B54A1C0DD0E34A00232C3215462C68D3
:1018D000E4B1E569A94221D3491B04F1100523466F
:1018E000F5E7DC49002301F130021446194623686C
:1018F00003F11004002BF9D14FF0FF33C361002333
:10190000C0E90431C1B101F1100215E0C161C0E9C3
:101910000443002B18BF03F110020DE0002BC0E9B7
:101920000443C16118BF03F1100210602CB1E269D9
:10193000511AE16104F114021060B0BDC26901697D
:10194000531C0AD021B143694B61CB691A44CA6167
:1019500042693AB9F648C162704709B142694A61C1
:1019600042691AB10023436111617047F048016375
:10197000704700BF70B5EE4EF46A1CB1E0690138E3
:10198000E06103D070BDE069002844D1607813386D
:101990004FEA3010082830D8DFE800F0052F090D95
:1019A000121C21262B002046FFF726F825E02046B2
:1019B000FFF78AF921E0FFF7C0FAFFF72FF81CE0E4
:1019C000FFF7BBFA21460546FFF7BFFE2846FFF7A3
:1019D000FDF812E0FFF7B1FAFFF70EF90DE0FFF79F
:1019E000ACFAFFF779F808E0FFF7A7FAFFF79CF8E1
:1019F00003E0FFF7A2FAFFF7DBF8A06B016A2046CD
:101A0000FFF784F9FFF793FA204600F0B9F824694C
:101A1000002CB8D101E000206061F46270BD00BF0D
:101A2000B0B50546D848017A446965B1022905D1A7
:101A300094F9200095F92010814211DC2846BDE878
:101A4000B04000F09DB8022912D1456A85B194F9E1
:101A5000200095F9201081420ADD284600F055F853
:101A60002046FFF70FFF2846BDE8B04000F0C2B89F
:101A7000B0BD00BF10B5044600202080A0788107CB
:101A80000DD5C00605D4C048216B406FFFF70CFD93
:101A900005E0BD48216BD0F88400FFF76BFDA0780E
:101AA000C00708BF10BDB849D1F8880020B1214651
:101AB000BDE81040FFF75EBDD1F880002146BDE8CB
:101AC0001040FFF7F1BC00BF08000020014680680D
:101AD00082688A6002B1D1600021C160704710B590
:101AE00091F920300246806840B190F920409C4234
:101AF000F8DAC1E9020291600C3004E00020C1E98B
:101B0000020202F10800016010BDC16831B18268B3
:101B10008A60826802B1D1600021C160704701789B
:101B2000F12901D1C068FAE77047B0B5044605460F
:101B300025B12878F12802D1ED68F9E7B0BDFFF7AB
:101B4000F6F928462146BDE8B040FFF7C8BFB0B55A
:101B500004464078332811D1FFF7F2F970B10546F9
:101B600020460022294600F077F894F82310606A96
:101B70002A462346BDE8B040FFF78AB8B0BD000052
:101B800001460120487080481C30FFF7A8BF00BF05
:101B9000806B2030704700007B48416939B1086B89
:101BA0008A6B824204D90068034A904200D1704790
:101BB0000120FFF7FDBB00BFA52E5AE270B55B4CBC
:101BC00009480021A26D666E00F024FDF64DA86262
:101BD00036B1E26D0648002100F01CFDA86408B192
:101BE000012070BD002070BDB3130000080000206C
:101BF000F51C000010B50446F548846102206070B1
:101C0000FFF7CAFF2046BDE81040FFF779B800BFD4
:101C1000F8B5EF4F0546387A022818D1786AB0B186
:101C20007E690C463046FEF7EDFF30462146757062
:101C3000FFF746FE786A8168796211B107F11C02EC
:101C4000CA600021C160FFF7D5FF0120F8BD002068
:101C5000F8BD00BF0800002070B515460E460446CA
:101C6000FFF754F8A06B0662FFF775F92046002DC8
:101C7000BDE8704008BFFFF783BFFFF7D1BE00008B
:101C8000B0B5FFF7AFF8D24DE968286D0131E960D2
:101C900000B18047FFF76EFE0020FFF7C1FE296C00
:101CA00059B1AA69A86B90421CBFC5E90E21B0BD0D
:101CB000E96B19B10139E96300D0B0BD297A022975
:101CC000FBD16C6A002CF8D090F8200094F820101A
:101CD0008142F2D12046FFF718FFA86BFFF750FFB3
:101CE000A86BFFF707F82046FFF784FF286CC5E9CB
:101CF0000E40B0BD82B0F9480821D0E91820FFF7A6
:101D0000EFFAF54D6C460B49C5E913012146002257
:101D10004FF0FF33FFF79CFA30B9DDE90001FEF721
:101D2000FDFFDDE900108847E86CEFE7B02900000F
:101D300008000020391D000070B5E74D6C6C0CB335
:101D40002069012601382061E4B12069D0B9E0683A
:101D500008B1A16881606864E86C04F11801002290
:101D60000023FFF7DFFA18B103202146FFF720FB1D
:101D7000E078012811BF667061692046FFF766F9B7
:101D80006C6CE1E770BD00BF08000020FEF75AFF51
:101D9000DFF810C000DF00204FF0FF31FEF74CFFEE
:101DA000FEE700BF9924000070B50D460446FEF71B
:101DB00055FFEFF3058028B9EFF3108010B9EFF36A
:101DC000118048B36CB1002D0BD42078F12808D1D4
:101DD000607804280ED120466FF002016FF00206F1
:101DE00004E020466FF003016FF00306FEF730FFBA
:101DF000304670BD04F1280050E8001F41EA050696
:101E000040E8006202B1F7E72046FFF703FD2046F5
:101E10003146FEF72BFFEBE72046DFF808C02946E6
:101E200000DF70BD0925000070B514460D4606465A
:101E3000FEF724FFEFF3058028B9EFF3108010B907
:101E4000EFF3118020B1FFF74AF86FF0050070BD85
:101E50003046DFF80CC02946224600DF70BD00BFC7
:101E60008525000070B514460D460646FEF738FF7E
:101E7000EFF3058028B9EFF3108010B9EFF311806C
:101E800038B100206FF005010024FEF7D5FE204692
:101E900070BD3046DFF80CC02946224600DF0446FC
:101EA000F5E700BF1526000001240025304E012073
:101EB000FEF7E2FF0020FFF765F87068746100F03C
:101EC0003BF800207561FFF751F8F0E70124002589
:101ED000274E0120FEF7D0FF0120FFF753F8B0682E
:101EE000B46100F029F80120B561FFF73FF8F0E791
:101EF000012400251E4E0120FEF7BEFF0220FFF741
:101F000041F8F068F46100F017F80220F561FFF77E
:101F10002DF8F0E701240025154E0120FEF7ACFF57
:101F20000320FFF72FF83069346200F005F8032032
:101F30003562FFF71BF8F0E7F8B50D4D04460D4E7E
:101F40004FF480712868B0470B4F4FF4FA70B847D0
:101F500028684FF48071B0474FF4FA70B8472046B4
:101F60000121B0474FF4FA703946BDE8F840084700
:101F7000B0000020A91D00006911000010B568B173
:101F8000044613202146FFF743FE18B12046FEF712
:101F90003FFD03E0B7484069FEF72EFD002010BD6D
:101FA000B448007A704700BF08000020B0B5B148BF
:101FB000C568FEF72DFF0446FEF73AFF18B101355C
:101FC000FEF726FF0446FEF72DFF00FB0540B0BDDF
:101FD000080000202DE9F843F64F387A20B1012897
:101FE00074D0FEF769FF74E007F108009C21FEF74A
:101FF00054FADFF81888B8F81000D8E90B41A7F8B0
:102000005400D8E902023864FA652046FFF772FAF4
:1020100008B1C7F88040D8E90541DFF8C490D8E995
:1020200007562046C847D7F880100028284618BF12
:10203000214679673146C847D7F88010002818BF75
:102040002946B967D8E909412046C847D7F8801022
:10205000002818BF2146D8F83440F9671CB1FEF7B4
:1020600013FFC7F88440D8F838401CB1FEF70CFFC6
:10207000C7F88840D8F83C401CB1FEF705FFC7F808
:102080008C40D8F840401CB1FEF7FEFEC7F89040E7
:10209000D8F844401CB1FEF7F7FEC7F89440D8F8D2
:1020A00048401CB1FEF7F0FEC7F89840D8F84C4005
:1020B0001CB1FEF7E9FEC7F89C40D8F850401CB1AF
:1020C000FEF7E2FEC7F8A04001203872FEF7B8FC28
:1020D00000242046BDE8F88308000020B029000055
:1020E000F5140000B0B5EB4C207A01281FD1FFF7A2
:1020F00065FDC8B11F48FF211F4D8175817D0268B4
:1021000081F0FF01C2F30222B1FA81F1C1F1200195
:102110008A4228BF511CFE2202FA01F1C17468688C
:102120001649FEF78BFE50B1FEF7C6FE05E06FF0D4
:102130000600FEF779FC4FF0FF342046B0BDFEF7F5
:102140006DFE2061FEF752FE04F11C00FFF7BEFC9D
:10215000FFF750FD2878C00703D1032080F31488CF
:1021600002E0022080F3148802202072FEF774FC43
:102170000024E2E70CED00E0B0290000510400006B
:102180002DE9F041044600284DD02078FA284AD1A4
:102190000D46002947D020461F469046FEF7C7FD52
:1021A000002845D0FEF7D2FE626A06F10C012846EF
:1021B000FEF75AF9B8F1000F02D0F07888F8000065
:1021C00020462946FEF7FAFC04F10C0731460025AB
:1021D00035703846FFF7CEF9A06830B33846FFF7C0
:1021E000A7F9002508B30646FEF7A4FE0021012248
:1021F0000746FFF731FD3846FFF7CAFCD0F80880E4
:102200000746626A06F10C004146FEF72DF9F920F7
:1022100030703146B570F868F0702046FEF7A7FDC3
:10222000FEF781FE01E0FEF735FE2846BDE8F081AD
:102230009FB1204629463A46FEF76CFC832039467A
:10224000FFF7E6FC80B1F24841692046FFF747FC02
:10225000EFF30980C0E9025809E020462946FEF75D
:102260008BFC6FF00205E0E72046FEF75DFC6FF0A7
:102270000105DAE7080000202DE9F84F68B10F46A4
:1022800059B107F10F010546B0FA80F021F00306BD
:10229000B6FA86F108441F2808D8002400206FF001
:1022A0000301FEF727FC2046BDE8F88F06FB05F981
:1022B000B2B19468D2F800A0D2E90480DCB1A107E1
:1022C0001CD1D168332919D9B8F1000F43D05FEA86
:1022D000887142D1484540D334B14FF0000B1BE028
:1022E0004FF0000A4FF00008C949D1F8A00050B1E2
:1022F000FFF71EF90DE0D1680029E5D00024002089
:102300006FF00801CDE7D1F8800034210122FFF7FA
:102310008DF804464FF0010BB8F1000F2CD15CB3DF
:10232000CDF800A0DFF8E0A449460022DAF87C00EE
:10233000FFF77CF8804620B140464946FEF7ADF8ED
:1023400016E0BBF1000F12D0DAF8A00050B1214620
:10235000FFF710F90BE00028BED0002400206FF03A
:1023600009019EE7DAF880002146FFF79DF8002476
:10237000DDF800A00BF1020B0020C4B1C4E9097024
:10238000C4E90B00C4E901A0FA20207029463246B6
:10239000434684F802B004F10C00FFF716F99C489C
:1023A0000549016761682046FEF79CFB7BE76FF0FB
:1023B000040176E708000020151600002DE9F04121
:1023C000044638B32078FA2824D1884611B3A0688F
:1023D0001F46164620B34078832821D1FEF7A3FD7F
:1023E000FEF7A8FD002101220546FFF735FC28462F
:1023F000FFF7CEFB85680746626A41462846FEF72E
:1024000033F8F86800B1067020462946FEF7D6FB7F
:10241000002602E02046FEF773FD3046BDE8F0815D
:1024200004F10C00FFF784F888B10546626A0C30AD
:102430004146FEF719F8F92028702946EE7000266B
:10244000AE702046FEF793FCFEF76DFDE5E79FB109
:10245000204641463A46FEF7A1FB93203946FFF756
:10246000D7FB80B1E84841692046FFF738FBEFF31E
:102470000980C0E9028609E020464146FEF774FB68
:102480006FF00206C9E72046FEF792FB6FF00106E7
:10249000C3E700BF0800002070B5DB4D287A022892
:1024A00023D1686A08B36C69E06AFFF722F9A06972
:1024B00030B100210022FFF7CFFBA069FEF70AFC34
:1024C000EFF30980A063686A8168696211B105F160
:1024D0001C02CA600026C660FFF78CFBE0786E61C4
:1024E000C00703D1FEF73AFD08E070BD042060701C
:1024F000E660686BA06000B1C4606C632046BDE814
:102500007040FEF793BB00BF70B5044650B1002980
:1025100008D42078F12805D16078042808D1FEF786
:10252000F5FC01E0FEF7D5FCFEF792FB284670BDF6
:1025300004F1280050E8002F42EA010540E800536A
:1025400003B1F7E76078332817D1FEF7F9FCA0B1A3
:10255000064694F823003546314680075CBF606A22
:1025600026EA000520460122FFF776FB94F82310A7
:10257000606A32462346FEF78BFB20462946FEF76B
:1025800075FBD3E72DE9F04107469F48446994B1B4
:10259000B7F1FF3F14DD0D469046204639462A46E6
:1025A000FEF722FDA0B106463846294623463246AC
:1025B000FEF76EFB28E0FEF797FC4FF0FF3623E0B6
:1025C00020466FF003016FF00306FEF741FB1BE0AE
:1025D000B8F1000F12D0384629464246FEF76AFB92
:1025E0003320414684F823506762FFF711FB10B98E
:1025F0002046FEF769FB6FF0010605E038462946E4
:10260000FEF750FB6FF002063046BDE8F08100BFD8
:10261000080000202DE9FE4F08B305461AB396685E
:10262000D2E9044BD2F818A0D2E900936EB3B007F8
:102630002ED1D06843282BD924B1600771D1BBF1CA
:10264000000F6ED0BAF1000F60D0BAF1010F02DBBB
:10265000BAF1390F5CDB00206FF00B011BE00020AA
:102660006FF0030117E001274FF0180A0023002440
:102670004FF0000B4FF00009634ACDE90131D2F869
:10268000880070B1FEF754FF11E0D0680028D3D065
:1026900000206FF008010026FEF7CEFA3046BDE8B4
:1026A000FE8FD2F8800044210122FEF7BFFE0646CD
:1026B0004FF001080022002C4DD1002E4BD077B1F5
:1026C00051485249D0F88400D1F854B038B1174677
:1026D000FEF72EFF68B1044608F1100839E04A48B9
:1026E000174659460022406FFEF7A0FE08B1044687
:1026F0002FE01FB14FF00008002429E04249D1F833
:102700008800E8B13146FEF735FF1EE04FF0180AA9
:10271000BBF1000F09D05FEA4B7002D1BBF1470F4C
:1027200003D800206FF00A01B5E7BBFA8BF0470928
:10273000002EA1D0CDE901314FF000080122BAE707
:10274000D1F880003146FEF7AFFE00244FF00108BB
:10275000002648F00208002E46D00198F07018219B
:10276000C6F8049086F8028040F2F110308006F13D
:102770000800FDF792FE04EB0B010020FD22C6F8D5
:102780002300C6F82700C6F82B0086F82F0086F82D
:10279000222086F821A086F820A0C6E90C4B4039FB
:1027A000C6E90E151A492160029F184909784907A0
:1027B0001ED4B16B00220D2A03D041F82200013251
:1027C000F9E74FF08070134AC1E90D25C8630F6225
:1027D00011490D484A460166F16B3046FEF71AFA78
:1027E0003046FFF71DF959E700206FF0040153E769
:1027F0006FF01001221D4FF0CC3301EB9B0100293B
:10280000D7D008C20139FAE708000020B02900003B
:10281000A52E5AE28D1D00004F1B00000FB4054B82
:1028200010B503A9044A029800F018F810BC5DF82E
:1028300014FB0000011100000000002002E008C8A5
:10284000121F08C1002AFAD170477047002001E02A
:1028500001C1121F002AFBD1704700002DE9FF4F74
:1028600089B09B460446002506E025280BD05A4631
:102870000B999047641C6D1C20780028F5D10DB091
:102880002846BDE8F08F0027B8460122474900E0FE
:10289000074314F8013F203B02FA03F00842F7D146
:1028A00020782E2819D114F8010F47F004072A28A0
:1028B0000ED06FF02F022078A0F1300109290CD83A
:1028C00008EB880102EB410100EB0108641CF2E710
:1028D0000A98641C50F8048B0A9020780028CED007
:1028E000642808D0692806D075281ED05A460B994E
:1028F00090476D1C58E00A994FF00A0901C90A91E6
:10290000002802DA40422D2102E0390504D52B21AE
:102910008DF82010012103E0F90704D02021F7E70A
:102920008A4608AE0DE00021FAE70A994FF00A093D
:1029300001C90A91F7E74946FDF7BAFD303106F8BB
:10294000011D0028F7D1ADEB060000F12009780742
:1029500001D44FF00108C84502DDA8EB090000E0F2
:1029600000208046002706E008A85A46C05D0B9963
:1029700090476D1C7F1C5745F6DB04E030205A461B
:102980000B9990476D1CB8F10001A8F10108F5DC26
:1029900005E016F8010B5A460B9990476D1CB9F1EA
:1029A0000001A9F10109F4DC641C65E709280100B4
:1029B00003000000E803000005000000E80000201C
:1029C00010000000000000000000000000000000F7
:1029D00000000000000000000000000028010020AE
:1029E00000100000000000000000000000000000D7
:1029F00000000000000000000000000000000000D7
:102A000000000000000100006C2A0000A82A00005D
:102A1000902A000004000000AC11002034120020B5
:102A200000000000000000000000000000000000A6
:102A30000000000000000000000000000000000096
:102A40000000000000000000281100205C110020A0
:102A500001000101400000008014002080180020C7
:102A6000001900200200000000000000000000002B
:102A700000000000AC1100204400000038120020CB
:102A80000001000001000000000000000000000044
:102A900000000000000000002811002034000000A9
:102AA0005C11002050000000000000000000000049
:102AB000F011002044000000381300200001000045
:102AC00028000000000000000000000052545820C0
:102AD00056352E352E320000F82A00000000002066
:102AE000B00000003C280000A82B0000B00000202F
:102AF000881300004C2800000000000040787D0191
:102B0000CC2A0000D2B3FB0200000000000000004D
:102B100000000000000000000000000000000000B5
:102B200000000000000000000000000000000000A5
:102B30000000000000000000000000000000000095
:102B40000000000000000000000000000000000085
:102B50000000000000000000000000000000000075
:102B60000000000000000000000000000000000065
:102B70000000000000000000000000000000000055
:102B80000000000000000000000000000000000045
:102B90000000000000000000000000000000000035
:082BA00000000000000000002D
:04000005000003C133
:00000001FF
